{
  "transactions": [
    {
      "hash": "0xd8484e1ac33329d7b69f3082c7b924ff146cba8807a45d9cb8567e586d085e02",
      "transactionType": "CALL",
      "contractName": null,
      "contractAddress": "0x75e9795305f6eec67c463a86ba36b50678c858a3",
      "function": "mintNft(string)",
      "arguments": [
        "ipfs://bafybeig37ioir76s7mg5oobetncojcm3c3hxasyd4rvid4jqhy4gkaheg4/?filename=0-PUG.json"
      ],
      "transaction": {
        "from": "0x77115874addab32a2a22f54be3b855b5a1b9206d",
        "to": "0x75e9795305f6eec67c463a86ba36b50678c858a3",
        "gas": "0x31d9d",
        "value": "0x0",
        "input": "0xda86f4a900000000000000000000000000000000000000000000000000000000000000200000000000000000000000000000000000000000000000000000000000000057697066733a2f2f62616679626569673337696f6972373673376d67356f6f6265746e636f6a636d3363336878617379643472766964346a71687934676b61686567342f3f66696c656e616d653d302d5055472e6a736f6e000000000000000000",
        "nonce": "0x21",
        "chainId": "0xaa36a7"
      },
      "additionalContracts": [],
      "isFixedGasLimit": false
    }
  ],
  "receipts": [
    {
      "status": "0x1",
      "cumulativeGasUsed": "0x11b885a",
      "logs": [
        {
          "address": "0x75e9795305f6eec67c463a86ba36b50678c858a3",
          "topics": [
            "0xddf252ad1be2c89b69c2b068fc378daa952ba7f163c4a11628f55a4df523b3ef",
            "0x0000000000000000000000000000000000000000000000000000000000000000",
            "0x00000000000000000000000077115874addab32a2a22f54be3b855b5a1b9206d",
            "0x0000000000000000000000000000000000000000000000000000000000000002"
          ],
          "data": "0x",
          "blockHash": "0x4759868ee45b328900e10918ee25bf5c125bfd91640d97f087649a3bef946489",
          "blockNumber": "0x6662c9",
          "transactionHash": "0xd8484e1ac33329d7b69f3082c7b924ff146cba8807a45d9cb8567e586d085e02",
          "transactionIndex": "0x88",
          "logIndex": "0x93",
          "removed": false
        }
      ],
      "logsBloom": "0x04000000000200000000000000000000000000000000200000000000000000000000000000000000000000000000000000000000000000000000000000000000000000000000000000000008000000000000000000000000000000000000000000000000020000000000000000000800000080000000000000000010200000000000000000000000000000000000000000000000000000000000000000000000000000000000000000000100100000000000000000000000000000000000000000000002000000000000000001000000000000000000000000000000000020000000000000000000000000000000000000000000008000000000000000000000",
      "type": "0x2",
      "transactionHash": "0xd8484e1ac33329d7b69f3082c7b924ff146cba8807a45d9cb8567e586d085e02",
      "transactionIndex": "0x88",
      "blockHash": "0x4759868ee45b328900e10918ee25bf5c125bfd91640d97f087649a3bef946489",
      "blockNumber": "0x6662c9",
      "gasUsed": "0x24176",
      "effectiveGasPrice": "0x1379f9f2d",
      "from": "0x77115874addab32a2a22f54be3b855b5a1b9206d",
      "to": "0x75e9795305f6eec67c463a86ba36b50678c858a3",
      "contractAddress": null
    }
  ],
  "libraries": [],
  "pending": [],
  "returns": {},
  "timestamp": 1726587667,
  "chain": 11155111,
  "commit": "334fbc3"
}