{
  "transactions": [
    {
      "hash": "0xd4e87c37d1b125fdd6f00f618bd2a5caaa3b7a3ecdefc07c29702ee62755aa81",
      "transactionType": "CALL",
      "contractName": null,
      "contractAddress": "0x75e9795305f6eec67c463a86ba36b50678c858a3",
      "function": "mintNft(string)",
      "arguments": [
        "https://ipfs.io/ipfs/QmdiNJFxm9qni3hWnDTn2YKbGzfz7f5vkGPrkj2nhhh4YM"
      ],
      "transaction": {
        "from": "0x77115874addab32a2a22f54be3b855b5a1b9206d",
        "to": "0x75e9795305f6eec67c463a86ba36b50678c858a3",
        "gas": "0x3d4d8",
        "value": "0x0",
        "input": "0xda86f4a90000000000000000000000000000000000000000000000000000000000000020000000000000000000000000000000000000000000000000000000000000004368747470733a2f2f697066732e696f2f697066732f516d64694e4a46786d39716e693368576e44546e32594b62477a667a376635766b4750726b6a326e68686834594d0000000000000000000000000000000000000000000000000000000000",
        "nonce": "0x1f",
        "chainId": "0xaa36a7"
      },
      "additionalContracts": [],
      "isFixedGasLimit": false
    }
  ],
  "receipts": [
    {
      "status": "0x1",
      "cumulativeGasUsed": "0xce7103",
      "logs": [
        {
          "address": "0x75e9795305f6eec67c463a86ba36b50678c858a3",
          "topics": [
            "0xddf252ad1be2c89b69c2b068fc378daa952ba7f163c4a11628f55a4df523b3ef",
            "0x0000000000000000000000000000000000000000000000000000000000000000",
            "0x00000000000000000000000077115874addab32a2a22f54be3b855b5a1b9206d",
            "0x0000000000000000000000000000000000000000000000000000000000000000"
          ],
          "data": "0x",
          "blockHash": "0xa8e98c10599752a335b1cf4768a3f05ca26b3b618a903364829bba643442d39b",
          "blockNumber": "0x6662b1",
          "transactionHash": "0xd4e87c37d1b125fdd6f00f618bd2a5caaa3b7a3ecdefc07c29702ee62755aa81",
          "transactionIndex": "0x4c",
          "logIndex": "0x119",
          "removed": false
        }
      ],
      "logsBloom": "0x00000000000200000000000000000000000000000000200000000000000000000000000000000000000000000000000000000000000000000000000000000000000000000000000000000008000000000000000000000000000000000000000000000000020000000000000000000800000080000000000000000010200000000000000000000000000000000000000000000000000000000000000000000000000000000000000000000000100000000000000000000000000000000000000000000002000000000000000001000000000000000000000000000000000020000000000000000000000000000000000000000000000000000000000000000000",
      "type": "0x2",
      "transactionHash": "0xd4e87c37d1b125fdd6f00f618bd2a5caaa3b7a3ecdefc07c29702ee62755aa81",
      "transactionIndex": "0x4c",
      "blockHash": "0xa8e98c10599752a335b1cf4768a3f05ca26b3b618a903364829bba643442d39b",
      "blockNumber": "0x6662b1",
      "gasUsed": "0x2c61e",
      "effectiveGasPrice": "0x150337a8b",
      "from": "0x77115874addab32a2a22f54be3b855b5a1b9206d",
      "to": "0x75e9795305f6eec67c463a86ba36b50678c858a3",
      "contractAddress": null
    }
  ],
  "libraries": [],
  "pending": [],
  "returns": {},
  "timestamp": 1726587366,
  "chain": 11155111,
  "commit": "334fbc3"
}