{
  "transactions": [
    {
      "hash": "0xaf28b2a9bdb38bae9d94b9f3adc41c01da5401aea47798b06447cd713d697ae1",
      "transactionType": "CALL",
      "contractName": null,
      "contractAddress": "0x75e9795305f6eec67c463a86ba36b50678c858a3",
      "function": "mintNft(string)",
      "arguments": [
        "ipfs/QmdiNJFxm9qni3hWnDTn2YKbGzfz7f5vkGPrkj2nhhh4YM"
      ],
      "transaction": {
        "from": "0x77115874addab32a2a22f54be3b855b5a1b9206d",
        "to": "0x75e9795305f6eec67c463a86ba36b50678c858a3",
        "gas": "0x2a2dc",
        "value": "0x0",
        "input": "0xda86f4a900000000000000000000000000000000000000000000000000000000000000200000000000000000000000000000000000000000000000000000000000000033697066732f516d64694e4a46786d39716e693368576e44546e32594b62477a667a376635766b4750726b6a326e68686834594d00000000000000000000000000",
        "nonce": "0x20",
        "chainId": "0xaa36a7"
      },
      "additionalContracts": [],
      "isFixedGasLimit": false
    }
  ],
  "receipts": [
    {
      "status": "0x1",
      "cumulativeGasUsed": "0xb89179",
      "logs": [
        {
          "address": "0x75e9795305f6eec67c463a86ba36b50678c858a3",
          "topics": [
            "0xddf252ad1be2c89b69c2b068fc378daa952ba7f163c4a11628f55a4df523b3ef",
            "0x0000000000000000000000000000000000000000000000000000000000000000",
            "0x00000000000000000000000077115874addab32a2a22f54be3b855b5a1b9206d",
            "0x0000000000000000000000000000000000000000000000000000000000000001"
          ],
          "data": "0x",
          "blockHash": "0x1b42c6da6395e1f840c847d84944e8c6ce804133cc35d090c913ac4d04300dcb",
          "blockNumber": "0x6662c1",
          "transactionHash": "0xaf28b2a9bdb38bae9d94b9f3adc41c01da5401aea47798b06447cd713d697ae1",
          "transactionIndex": "0x4f",
          "logIndex": "0xa2",
          "removed": false
        }
      ],
      "logsBloom": "0x00000000000200000000000000000000000000000000200000000000000000000000000000000000000000000000000000000000000000000000000000040000000000000000000000000008000000000000000000040000000000000000000000000000020000000000000000000800000080000000000000000010200000000000000000000000000000000000000000000000000000000000000000000000000000000000000000000000100000000000000000000000000000000000000000000002000000000000000001000000000000000000000000000000000060000000000000000000000000000000000000000000000000000000000000000000",
      "type": "0x2",
      "transactionHash": "0xaf28b2a9bdb38bae9d94b9f3adc41c01da5401aea47798b06447cd713d697ae1",
      "transactionIndex": "0x4f",
      "blockHash": "0x1b42c6da6395e1f840c847d84944e8c6ce804133cc35d090c913ac4d04300dcb",
      "blockNumber": "0x6662c1",
      "gasUsed": "0x1e897",
      "effectiveGasPrice": "0x145e99208",
      "from": "0x77115874addab32a2a22f54be3b855b5a1b9206d",
      "to": "0x75e9795305f6eec67c463a86ba36b50678c858a3",
      "contractAddress": null
    }
  ],
  "libraries": [],
  "pending": [],
  "returns": {},
  "timestamp": 1726587567,
  "chain": 11155111,
  "commit": "334fbc3"
}