{
  "transactions": [
    {
      "hash": "0x5b8b29bba3c0752da1d6b1b6c74643ea6161a2aa6dc782aef75f9b8ce4640d75",
      "transactionType": "CALL",
      "contractName": null,
      "contractAddress": "0x75e9795305f6eec67c463a86ba36b50678c858a3",
      "function": "mintNft(string)",
      "arguments": [
        "ipfs://QmdiNJFxm9qni3hWnDTn2YKbGzfz7f5vkGPrkj2nhhh4YM/?filename=dog.webp"
      ],
      "transaction": {
        "from": "0x77115874addab32a2a22f54be3b855b5a1b9206d",
        "to": "0x75e9795305f6eec67c463a86ba36b50678c858a3",
        "gas": "0x34b81",
        "value": "0x0",
        "input": "0xda86f4a900000000000000000000000000000000000000000000000000000000000000200000000000000000000000000000000000000000000000000000000000000048697066733a2f2f516d64694e4a46786d39716e693368576e44546e32594b62477a667a376635766b4750726b6a326e68686834594d2f3f66696c656e616d653d646f672e77656270000000000000000000000000000000000000000000000000",
        "nonce": "0x22",
        "chainId": "0xaa36a7"
      },
      "additionalContracts": [],
      "isFixedGasLimit": false
    }
  ],
  "receipts": [
    {
      "status": "0x1",
      "cumulativeGasUsed": "0xe8bad2",
      "logs": [
        {
          "address": "0x75e9795305f6eec67c463a86ba36b50678c858a3",
          "topics": [
            "0xddf252ad1be2c89b69c2b068fc378daa952ba7f163c4a11628f55a4df523b3ef",
            "0x0000000000000000000000000000000000000000000000000000000000000000",
            "0x00000000000000000000000077115874addab32a2a22f54be3b855b5a1b9206d",
            "0x0000000000000000000000000000000000000000000000000000000000000003"
          ],
          "data": "0x",
          "blockHash": "0x6830150d3cace7bef9e8fe619e57ca61fef05d6e7ae993a8f5a89ea51cabe9e4",
          "blockNumber": "0x666303",
          "transactionHash": "0x5b8b29bba3c0752da1d6b1b6c74643ea6161a2aa6dc782aef75f9b8ce4640d75",
          "transactionIndex": "0x65",
          "logIndex": "0x80",
          "removed": false
        }
      ],
      "logsBloom": "0x00000000000200000000000000000000000000000000200000000000000000000000000000000000000000000000000000000000020000000000000000000000000000000000000000000008000000000000000000000000000000000000000000000000020000000000000000000800000080000000000000000010200000000000000000000000000000000000000000000000000000000000000000000000000000000000000000000000100000000000000000800000000000000000400000000002000000000000000001000000000000000000000000000000000020000000000000000000000000000000000000000000000000000000000000000000",
      "type": "0x2",
      "transactionHash": "0x5b8b29bba3c0752da1d6b1b6c74643ea6161a2aa6dc782aef75f9b8ce4640d75",
      "transactionIndex": "0x65",
      "blockHash": "0x6830150d3cace7bef9e8fe619e57ca61fef05d6e7ae993a8f5a89ea51cabe9e4",
      "blockNumber": "0x666303",
      "gasUsed": "0x240c2",
      "effectiveGasPrice": "0x136781ac1",
      "from": "0x77115874addab32a2a22f54be3b855b5a1b9206d",
      "to": "0x75e9795305f6eec67c463a86ba36b50678c858a3",
      "contractAddress": null
    }
  ],
  "libraries": [],
  "pending": [],
  "returns": {},
  "timestamp": 1726588422,
  "chain": 11155111,
  "commit": "334fbc3"
}